:040000000BEF00F012
:100008005082FACF02F0FBCF03F092ED12F0A9EF85
:0200180015F0E1
:1008000000010000000A00000064000000E803008E
:100810000010270000A086010040420F008096983B
:100820000000E1F50500CA9A3B00803FCDCC3DD7E2
:10083000233C12833AB7D138C62737388635C0D61D
:1008400033CC2B32708930E7DB2EE53C1E42A20D03
:1008500000803F00204100C842007A44401C4650BE
:10086000C34724744997184BBCBE4C6B6E4E03159E
:100870005079AD60F34971202020504152414441EC
:1008800020504F5220202000534F425245434F5298
:1008900052454E544521212100436F7272656E749A
:1008A000653A20302E30304100252E32664120003E
:1008B00041636C3A2564004465733A2564002564FD
:1008C00073202000256473200000730E00017F6FE9
:1008D000000E0001806FF3EF08F0250E0001921961
:1008E000D8B40BD06FC0D9FF70C0DAFF92C0DFFF61
:1008F00000016F4B702BF3EF08F0000E0001826FC8
:10090000000E816F71C0F6FF72C0F7FF0800F5504E
:100910002E0AD8A434D00001828D0001714B722BB5
:10092000000E00018E6F000E8D6F1ED08DC01EF068
:100930008EC01FF0000E216E0A0E206ECBEC17F059
:1009400071C0F6FF72C0F7FF0800F5501E26000EBA
:100950001F22D00E1E2400018D6FFF0E1F200001EC
:100960008E6F0001714B722B71C0F6FF72C0F7FFE2
:100970000800F55000EC18F0D8A00CD0D7D7000E26
:1009800000018E6F000E8D6F0001828903D000017F
:1009900082851AD071C0F6FF72C0F7FF0001714B5B
:1009A000722B0800F5CF92F000019251000AD8B4E2
:1009B00002EF09F0640AD8B407D0020AD8B4E7D726
:1009C0000F0AD8A4F3EF08F0070E00018215D8B47F
:1009D00019D3000182A905D0000E00018E6F060E0A
:1009E0008D6F7FC0D9FF80C0DAFFDECF8FF0DECF02
:1009F00090F0DDCF91F0030E00017F27000E8023E1
:100A0000000191AF11D08FC010F090C011F091C0D3
:100A100012F0DEEC17F010C08FF011C090F012C091
:100A200091F0030E00018113000E0001846F000E8F
:100A3000836F00018F510001901100019111D8B412
:100A400091D0820E0001766FFF0E0001776F8FC08C
:100A500078F090C079F091C07AF092C07BF0100EDF
:100A600006D00001D8907B337A3379337833E82E7F
:100A7000F8D700017851000176250001836F000E40
:100A8000000177210001846F00018307D8A084074B
:100A900083C01EF084C01FF0000E216E030E206E76
:100AA000CBEC17F01EC083F01FC084F083C016F09B
:100AB00084C017F0000E196E0A0E186EBBEC14F00D
:100AC00016C083F017C084F0000184AF04D0000189
:100AD0008307D8A08407000183510008B0EC0BF015
:100AE00033C085F034C086F035C087F085C024F06F
:100AF00086C025F087C026F08FC027F090C028F070
:100B000091C029F0A5EC11F024C085F025C086F035
:100B100026C087F085C010F086C011F087C012F0A3
:100B2000000E136E800E146E3F0E156E73EC14F0F3
:100B3000D8B005D000018307D8A0840713D085C0A2
:100B400010F086C011F087C012F0000E136E200E58
:100B5000146E410E156E73EC14F0D8A003D0000192
:100B6000834B842B00018EBF08D000018E511DE104
:100B70000D0E00018D5DD8B018D08FC03DF090C033
:100B80003EF091C03FF000018D51A8EC0DF033C054
:100B900040F034C041F035C042F0CBEC0EF03DC027
:100BA0008FF03EC090F03FC091F0000184BF08D0AC
:100BB000000184512AE10A0E0001835DD8B025D0DE
:100BC00000018F510001901100019111D8B45FD044
:100BD0008FC060F090C061F091C062F0D6EC0FF071
:100BE00000016051000161110001621100016311F7
:100BF000D8A44DD0000184BF4AD00001845105E142
:100C0000020E0001835DD8A042D085C010F086C0DE
:100C100011F087C012F0700E136E890E146E400E24
:100C2000156E73EC14F0D8B003D00001F70E02D0AB
:100C30000001F80E8327FF0E842300018351B0ECDE
:100C40000BF033C085F034C086F035C087F08FC01C
:100C500010F090C011F091C012F085C013F086C062
:100C600014F087C015F078EC10F010C089F011C0B6
:100C70008AF012C08BF013C08CF0000E00018F6F51
:100C8000000E0001906F000E0001916F33D08FC0F5
:100C900060F090C061F091C062F0D6EC0FF060C0DF
:100CA00089F061C08AF062C08BF063C08CF08FC0A5
:100CB00066F090C067F091C068F089C018F08AC0F3
:100CC00019F08BC01AF08CC01BF007EC16F018C09E
:100CD00069F019C06AF01AC06BF0E6EC16F066C055
:100CE0008FF067C090F068C091F0000E0001846F33
:100CF000000E836F010E0001926F0A0E000192191F
:100D0000D8B41ED000019251040D010EF324F66EEA
:100D1000080EF420F76E0900F5500001895D090006
:100D2000F55000018A590900F55000018B5909005E
:100D3000F55000018C59D8A003D00001922BDDD7CB
:100D4000030E000181150001766F000E000182156F
:100D50000001776F0001765100017711D8B454D0AB
:100D60006FC0D9FF70C0DAFF2D0E4CD000016F4B61
:100D7000702B4AD089C010F08AC011F08BC012F0DD
:100D80008CC013F000019251040D010EF324F66E95
:100D9000080EF420F76E0900F5CF14F00900F5CF26
:100DA00015F00900F5CF16F00A00F5CF17F0FDECAD
:100DB00014F010C085F011C086F012C087F013C087
:100DC00088F085C01DF086C01EF087C01FF088C067
:100DD00020F00A0E216E000E226E000E236E000E11
:100DE000246E76EC15F01DC085F01EC086F01FC085
:100DF00087F020C088F000018551300F6FC0D9FF07
:100E000070C0DAFFDF6EB2D70001920700019229AD
:100E1000D8B40ED0AFD76FC0D9FF70C0DAFF300E94
:100E2000DF6E00016F4B702B00018307D8A0840791
:100E3000000184BF07D000018451EDE1000183056A
:100E4000D8B0E9D700018EBF0CD000018E5105E16A
:100E5000090E00018D5DD8A004D0080E0001926F2C
:100E600002D08DC092F00001925100018D5F000E02
:100E7000000192BFFF0E00018E5B00019251000144
:100E8000D8B409D06FC0D9FF70C0DAFF2E0EDF6E64
:100E900000016F4B702B00019251B0EC0BF033C08E
:100EA0007CF034C07DF035C07EF08FC027F090C05C
:100EB00028F091C029F07CC024F07DC025F07EC0D0
:100EC00026F0A5EC11F024C060F025C061F026C02A
:100ED00062F0D6EC0FF060C089F061C08AF062C0A9
:100EE0008BF063C08CF073D089C010F08AC011F011
:100EF0008BC012F08CC013F000019251040D010E52
:100F0000F324F66E080EF420F76E0900F5CF14F006
:100F10000900F5CF15F00900F5CF16F00A00F5CF5E
:100F200017F0FDEC14F010C085F011C086F012C06F
:100F300087F013C088F085C01DF086C01EF087C002
:100F40001FF088C020F00A0E216E000E226E000EE7
:100F5000236E000E246E76EC15F01DC085F01EC0C9
:100F600086F01FC087F020C088F000018551300F47
:100F70006FC0D9FF70C0DAFFDF6E00016F4B702BBE
:100F800089C01DF08AC01EF08BC01FF08CC020F0FD
:100F900000019251040D010EF324F66E080EF420A8
:100FA000F76E0900F5CF21F00900F5CF22F0090016
:100FB000F5CF23F00A00F5CF24F076EC15F01DC034
:100FC00089F01EC08AF01FC08BF020C08CF0000199
:100FD000920700019229D8B40ED086D76FC0D9FFEE
:100FE00070C0DAFF300EDF6E00016F4B702B000116
:100FF0008D07D8A08E0700018D5100018E11D8B445
:10100000F2D0ECD77FC0D9FF80C0DAFFDECF89F005
:10101000DDCF8AF00001000E8ABFFF0E8B6F8C6F50
:10102000020E00017F27000E802300018CAF0CD040
:10103000030E0001811300018C1F8B1F8A1F896D15
:10104000000E8A238B238C2300018D5100018E1109
:10105000D8A40DD00001895100018A1100018B1123
:1010600000018C11D8A403D000018D4B8E2B010EF2
:101070000001926F0A0E00019219D8B41ED000012F
:101080009251040D010EF324F66E080EF420F76E53
:101090000900F5500001895D0900F55000018A59E9
:1010A0000900F55000018B590900F55000018C59D9
:1010B000D8A003D00001922BDDD7800E000192BF93
:1010C0007F0E0001766F00018D510001925D0001DD
:1010D0008E51800A00017659D8B003D08DC092F0AD
:1010E00018D000018E51800A0001766F00019251E4
:1010F00000018D5D800E000192BF7F0E00017659C8
:10110000D8B007D00001925100018D6F8E6B8DBF5A
:101110008E07030E000181150001766F000E00019D
:1011200082150001776F0001765100017711D8B464
:101130004FD06FC0D9FF70C0DAFF2D0EDF6E45D0E3
:101140008DC076F08EC077F00001D8907637773773
:101150000001D89076377737010E00017625F66EBC
:10116000080E7721F76E0900F5CF14F00900F5CFCE
:1011700015F00900F5CF16F00A00F5CF17F089C079
:1011800010F08AC011F08BC012F08CC013F0FDEC8F
:1011900014F010C01DF011C01EF012C01FF013C0DB
:1011A00020F00A0E216E000E226E000E236E000E3D
:1011B000246E76EC15F01D50300F0001926F6FC059
:1011C000D9FF70C0DAFF92C0DFFF00016F4B702BB8
:1011D00000018D07D8A08E0700018D29B1E1000123
:1011E0008E29D8A4ADD771C0F6FF72C0F7FF0001F9
:1011F000714B722B0800F5CF92F000019251D8A4E8
:101200006DEF04F06FC0D9FF70C0DAFF000EDF6E23
:101210001200770ED36E000E966E000E8D6E020ECB
:10122000946E000E8B6E0F0EC16E9268CAC0D0F025
:10123000CBC0D1F0900EF0EC17F0CD0E0FEC18F003
:10124000040ECB6EDD0EA2EC17F0CEC0B2FFCFC005
:10125000B3FF9D909D92A0929F809F82A282F18475
:10126000F18CF18EF18AF188F08CF086F08EF088A6
:10127000400EF26E040E106EFE0E116EEB0ED8ECE8
:1012800015F0B7EC17F0000EBDEC16F0990E116ECC
:10129000080E126E35EC16F0400EBDEC16F09D0EE9
:1012A00000016F6F000E0001706FB00E0001716FD2
:1012B000080E0001726FC8C073F0C9C074F065EC0D
:1012C00004F09D0E116E000E126E35EC16F0C00E7D
:1012D000116E080E126E35EC16F0480EBDEC16F0CD
:1012E0009D0E00016F6F000E0001706FB70E0001C0
:1012F000716F080E0001726FCCC073F0CDC074F036
:1013000065EC04F09D0E116E000E126E35EC16F0B9
:10131000C00E116E080E126E35EC16F00001C3BF40
:101320005FD00001C35105E10A0E0001C25DD8A0E3
:1013300057D0000E0001C36F000EC26F870E2AEC5B
:1013400018F052EC18F044EC18F00009D8A4FBD7C0
:10135000ACA2FED73DEC18F010C024F011C025F06F
:1013600086EC17F024C0B3F025C0B4F026C0B5F069
:10137000000E276EA00E286E400E296EB3C024F01A
:10138000B4C025F0B5C026F0A5EC11F024C033F0B0
:1013900025C034F026C035F0000E366E400E376E94
:1013A000450E386E1FEC12F033C0B3F034C0B4F009
:1013B00035C0B5F0B9C010F0BAC011F0BBC012F022
:1013C000B3C013F0B4C014F0B5C015F073EC14F052
:1013D000D8B006D0B3C0B9F0B4C0BAF0B5C0BBF055
:1013E000310E0001C76554D0000E0001C76FB9C0AF
:1013F00033F0BAC034F0BBC035F0050E366EB50E12
:10140000376E3F0E386E1FEC12F033C0B6F034C0AA
:10141000B7F035C0B8F00A0EBDEC16F0930E00011F
:101420006F6F000E0001706FA90E0001716F080E42
:101430000001726FB6C073F0B7C074F0B8C075F039
:1014400065EC04F0930E116E000E126E35EC16F082
:10145000000E106E800E116E3F0E126EB6C013F0AD
:10146000B7C014F0B8C015F073EC14F0D8B007D0C2
:101470000001C605D8A403D00CEC17F0FFD7000E6E
:101480000001B96F000E0001BA6F000E0001BB6FC2
:10149000000E366E480E376E430E386EC8C01EF012
:1014A000C9C01FF0030E216EE80E206ECBEC17F0C2
:1014B0001EC024F01FC025F086EC17F024C033F0C6
:1014C00025C034F026C035F01FEC12F033C060F0B8
:1014D00034C061F035C062F0D6EC0FF060C0BCF0F3
:1014E00061C0BDF0800E366EA20E376E430E386EB0
:1014F000CCC01EF0CDC01FF0030E216EE80E206E92
:10150000CBEC17F01EC024F01FC025F086EC17F0BE
:1015100024C033F025C034F026C035F01FEC12F0A3
:1015200033C060F034C061F035C062F0D6EC0FF02B
:1015300060C0BEF061C0BFF080B406D0000E0001F4
:10154000AB6F000E0001AF6F80B606D0000E000139
:10155000AC6F000E0001B06F80B806D0000E000125
:10156000AD6F000E0001B16F80BA06D0000E000111
:10157000AE6F000E0001B26F80A402D00001AB2B51
:1015800080A602D00001AC2B80A802D00001AD2BB8
:1015900080AA02D00001AE2B090E0001AB6516D067
:1015A0000001AF510001D8A411D00001C9BF08D07B
:1015B0000001C9510BE1630E0001C85DD8B006D02F
:1015C0000001C84BC92B010E0001AF6F090E0001CD
:1015D000AC6517D00001B0510001D8A412D00001B1
:1015E000C9BF0FD00001C95105E1020E0001C85D5D
:1015F000D8A007D00001C807D8A0C907010E000174
:10160000B06F090E0001AD6516D00001B1510001A7
:10161000D8A411D00001CDBF08D00001CD510BE1FD
:10162000630E0001CC5DD8B006D00001CC4BCD2BB1
:10163000010E0001B16F090E0001AE6517D0000167
:10164000B2510001D8A412D00001CDBF0FD00001CB
:10165000CD5105E1020E0001CC5DD8A007D00001FC
:10166000CC07D8A0CD07010E0001B26F0001A75131
:101670000001C81906E10001A8510001C919D8B438
:101680001FD0C8C0A7F0C9C0A8F0440EBDEC16F02A
:101690009D0E00016F6F000E0001706FC40E0001FF
:1016A000716F080E0001726FC8C073F0C9C074F08A
:1016B00065EC04F09D0E116E000E126E35EC16F006
:1016C0000001A9510001CC1906E10001AA51000155
:1016D000CD19D8B41FD0CCC0A9F0CDC0AAF04C0E03
:1016E000BDEC16F09D0E00016F6F000E0001706FD3
:1016F000BE0E0001716F080E0001726FCCC073F056
:10170000CDC074F065EC04F09D0E116E000E126EEB
:1017100035EC16F00001C651D8B482A210D0000EEC
:101720000001C16F000EC06F010E0001C46F000EFA
:101730000001C56FD00EF26EF086F088EFD5000183
:10174000C605D8B480A2EAD5000E0001C16F000E14
:10175000C06F000E0001C46F010E0001C56FDED521
:10176000396E39AEFBD0396C3950800A120FD8A0CF
:1017700091D0000E216E030E206E000E196E0A0E1F
:10178000186E000E136E640E126E3950106E116AD0
:1017900010BE11063EEC15F010C016F011C017F087
:1017A000BBEC14F0090E16241E6E000E17201F6EDF
:1017B000CBEC17F0290E1E24F66E080E1F20F76ED4
:1017C0000900F5CF27F00900F5CF28F00A00F5CF82
:1017D00029F0000E196E640E186E3950166E176AD5
:1017E00016BE1706BBEC14F0120E16241E6E000E69
:1017F00017201F6E000E216E030E206ECBEC17F02B
:10180000290E1E24F66E080E1F20F76E0900F5CF74
:1018100024F00900F5CF25F00A00F5CF26F0A5EC5D
:1018200011F024C036F025C037F026C038F036C09D
:1018300024F037C025F038C026F0000E216E030ECC
:10184000206E000E136E0A0E126E3950106E116A61
:1018500010BE11063EEC15F010C01EF011C01FF0B6
:10186000CBEC17F0290E1E24F66E080E1F20F76E23
:101870000900F5CF27F00900F5CF28F00A00F5CFD1
:1018800029F0A5EC11F024C033F025C034F026C0B7
:1018900035F012003950800A750FD8A04DD0000ED7
:1018A000196E0A0E186E3950166E176A16BE170694
:1018B000BBEC14F0090E16241E6E000E17201F6ECE
:1018C000000E216E030E206ECBEC17F0290E1E24A5
:1018D000F66E080E1F20F76E0900F5CF24F0090000
:1018E000F5CF25F00A00F5CF26F0000E216E030E8D
:1018F000206E000E136E0A0E126E3950106E116AB1
:1019000010BE11063EEC15F010C01EF011C01FF005
:10191000CBEC17F0290E1E24F66E080E1F20F76E72
:101920000900F5CF27F00900F5CF28F00A00F5CF20
:1019300029F0A5EC11F0A7D73950030D290EF32497
:10194000F66E080EF420F76E0900F5CF33F00900AB
:10195000F5CF34F00A00F5CF35F012003950800A87
:10196000120FD8A091D0000E216E030E206E000E33
:10197000196E0A0E186E000E136E640E126E395038
:10198000106E116A10BE11063EEC15F010C016F074
:1019900011C017F0BBEC14F0090E16241E6E000ED9
:1019A00017201F6ECBEC17F0500E1E24F66E080E9B
:1019B0001F20F76E0900F5CF27F00900F5CF28F0BA
:1019C0000A00F5CF29F0000E196E640E186E39501A
:1019D000166E176A16BE1706BBEC14F0120E16240C
:1019E0001E6E000E17201F6E000E216E030E206E5D
:1019F000CBEC17F0500E1E24F66E080E1F20F76E6B
:101A00000900F5CF24F00900F5CF25F00A00F5CF45
:101A100026F0A5EC11F024C036F025C037F026C022
:101A200038F036C024F037C025F038C026F0000E5C
:101A3000216E030E206E000E136E0A0E126E3950C8
:101A4000106E116A10BE11063EEC15F010C01EF0AB
:101A500011C01FF0CBEC17F0500E1E24F66E080ECE
:101A60001F20F76E0900F5CF27F00900F5CF28F009
:101A70000A00F5CF29F0A5EC11F024C033F025C001
:101A800034F026C035F012003950800A750FD8A006
:101A90004DD0000E196E0A0E186E3950166E176A68
:101AA00016BE1706BBEC14F0090E16241E6E000EAF
:101AB00017201F6E000E216E030E206ECBEC17F068
:101AC000500E1E24F66E080E1F20F76E0900F5CF8B
:101AD00024F00900F5CF25F00A00F5CF26F0000E1E
:101AE000216E030E206E000E136E0A0E126E395018
:101AF000106E116A10BE11063EEC15F010C01EF0FB
:101B000011C01FF0CBEC17F0500E1E24F66E080E1D
:101B10001F20F76E0900F5CF27F00900F5CF28F058
:101B20000A00F5CF29F0A5EC11F0A7D73950030D25
:101B3000500EF324F66E080EF420F76E0900F5CF70
:101B400033F00900F5CF34F00A00F5CF35F012007C
:101B50003C6E6D0E3C649FD0000E216E030E206E15
:101B6000000E196E0A0E186E000E136E640E126EC1
:101B70003CC010F0116A3EEC15F010C016F011C018
:101B800017F0BBEC14F0090E16241E6E000E172081
:101B90001F6ECBEC17F0290E1E24F66E080E1F20C8
:101BA000F76E0900F5CF27F00900F5CF28F00A00FD
:101BB000F5CF29F0000E196E640E186E3CC016F0B9
:101BC000176ABBEC14F0120E16241E6E000E1720BE
:101BD0001F6E000E216E030E206ECBEC17F0290E47
:101BE0001E24F66E080E1F20F76E0900F5CF24F0B4
:101BF0000900F5CF25F00A00F5CF26F0A5EC11F08D
:101C000024C039F025C03AF026C03BF0000E216E0A
:101C1000030E206E000E136E0A0E126E3CC010F002
:101C2000116A3EEC15F010C01EF011C01FF0CBEC95
:101C300017F0290E1E24F66E080E1F20F76E0900FD
:101C4000F5CF27F00900F5CF28F00A00F5CF29F0ED
:101C500039C024F03AC025F03BC026F0A5EC11F0C5
:101C600024C036F025C037F026C038F036C024F046
:101C700037C025F038C026F0000E276E000E286E03
:101C80003F0E296EA5EC11F024C033F025C034F0CE
:101C900026C035F012000A0E3C645DD0000E216EA5
:101CA000030E206E000E136E0A0E126E3CC010F072
:101CB000116A3EEC15F010C01EF011C01FF0CBEC05
:101CC00017F0290E1E24F66E080E1F20F76E09006D
:101CD000F5CF27F00900F5CF28F00A00F5CF29F05D
:101CE000000E196E0A0E186E3CC016F0176ABBEC97
:101CF00014F0090E16241E6E000E17201F6E000E23
:101D0000216E030E206ECBEC17F0290E1E24F66E0A
:101D1000080E1F20F76E0900F5CF24F00900F5CF5B
:101D200025F00A00F5CF26F0A5EC11F024C039F01B
:101D300025C03AF026C03BF039C024F03AC025F067
:101D40003BC026F0000E276E000E286E3F0E296E57
:101D5000A5EC11F099D73C50030D290EF324F66E33
:101D6000080EF420F76E0900F5CF24F00900F5CF36
:101D700025F00A00F5CF26F0000E276E000E286E23
:101D80003F0E296EA5EC11F024C033F025C034F0CD
:101D900026C035F012003FC060F00001616B626B3D
:101DA0003E340001603701E36181000160510001B0
:101DB000656F42C060F00001616B626B41340001ED
:101DC000603701E36181000160510001646F00012F
:101DD00065510001D8B411D0000164510001655D66
:101DE000D8B012D00001655100080001642500013F
:101DF000606F180E0001606507D040C03DF041C023
:101E00003EF042C03FF01200000164510001D8B41E
:101E100011D0000165510001645DD8B012D00001FD
:101E200064510008000165250001606F180E000173
:101E3000606507D03DC03DF03EC03EF03FC03FF082
:101E40001200060E0001636F3FAE02D00001638FE7
:101E500042AE02D00001638D3E8EFF0E3D16FF0E96
:101E60003E16000E3F16418EFF0E4016FF0E411625
:101E7000000E4216000164510001655DD8B023D008
:101E8000D890403641364236000164070001655162
:101E900000016419D8B410D00001630763C060F07A
:101EA000070E00016017D8B407D0EAD7D8903F32A8
:101EB0003E323D320001652B00016451000165197D
:101EC000D8B429D0F3D7000165510001645DD8B0C2
:101ED00022D0D8903D363E363F36000165070001DE
:101EE000655100016419D8B410D00001630763C0C4
:101EF00060F0070E00016017D8B407D0EAD7D89079
:101F00004232413240320001642B00016451000131
:101F10006519D8A4F4D7000163AF0CD0FF0E3D1AA9
:101F2000FF0E3E1AFF0E3F1A010E3D26000E3E2206
:101F3000000E3F22000163AD0CD0FF0E401AFF0ED1
:101F4000411AFF0E421A010E4026000E4122000ED9
:101F50004222000E0001636F3D5040263E50412258
:101F60003F50422242AE0FD0FF0E401AFF0E411AE0
:101F7000FF0E421A010E4026000E4122000E4222A0
:101F8000010E0001636F40C010F041C011F042C06B
:101F900012F065C013F063C014F01CEC14F010C014
:101FA0003DF011C03EF012C03FF0120062C064F07C
:101FB0000001656B666B000161350001643701E368
:101FC00065810001645100016E6F00016E51D8A45B
:101FD0000AD0000E0001606F000E616F000E626F8C
:101FE000000E636F1200170E0001646F60C065F091
:101FF00061C066F062C067F0000164290001686F8B
:1020000005D00001D8906733663365330001682F2F
:10201000F8D7000165510001696F0001618FFF0E63
:1020200000016017FF0E00016117000E000162172A
:102030000001605100016A6F0001615100016B6F86
:102040000001625100016C6F00016D6B8E0E00018A
:102050006E5F00016EAF1AD000016E51800A8F0FC3
:10206000D8B00AD0000E0001606F000E616F000E44
:10207000626F000E636F12000001D8906D336C33F5
:102080006B336A3300016E3FF7D71BD0170E000188
:102090006E6512D0000E0001606F000E616F000EC1
:1020A000626F000E636F12000001D8906A376B37C1
:1020B0006C376D3700016E0700016E510001D8A426
:1020C000F3D7000169510001D8B409D000016D1F98
:1020D0006C1F6B1F6A6D000E6B236C236D236AC02F
:1020E00060F06BC061F06CC062F06DC063F0120014
:1020F00012C016F0176A186A1134163601E31780F9
:1021000016501E6E1E50D8A409D0000E106E000E80
:10211000116E000E126E000E136E120015C016F036
:10212000176A186A1434163601E3178016501D6EAC
:102130001D50D8A409D0000E106E000E116E000EB6
:10214000126E000E136E1200118EFF0E1016FF0E8F
:102150001116000E1216148EFF0E1316FF0E141613
:10216000000E1516000E196E000E1A6E000E1B6E74
:10217000000E1C6E7F0E1E5E1D50980F1E5E180E08
:102180001D6ED89019361A361B361C361350105C4B
:102190001450115815501258D8A007D01350105E83
:1021A0001450115A1550125A1980D8901036113601
:1021B00012361D2EE6D71EAE16D01E50800A970F7F
:1021C000D8B009D0000E106E000E116E000E126E07
:1021D000000E136E1200D8901C321B321A321932C4
:1021E0001E3EF9D715D0170E1E640FD0000E106ECC
:1021F000000E116E000E126E000E136E1200D890BB
:1022000019361A361B361C361E061E50D8A4F7D7B0
:1022100019C010F01AC011F01BC012F01CC013F04E
:102220001200123413341B6E1B50D8A409D0000EB8
:10223000106E000E116E000E126E000E136E120064
:10224000153416341A6E1A50D8A409D0000E106E28
:10225000000E116E000E126E000E136E1200128E22
:10226000FF0E1016FF0E1116FF0E1216000E13169B
:10227000158EFF0E1316FF0E1416FF0E1516000E08
:102280001616000E166E000E176E000E186E000E5B
:10229000196E7F0E1B5E1A50A00F1B5E200E1A6E69
:1022A000D89016361736183619361350105C14505D
:1022B00011581550125816501358D8A009D0135061
:1022C000105E1450115A1550125A1650135A168097
:1022D000D89010361136123613361A2EE1D71BAEAF
:1022E00016D01B50800A9F0FD8B009D0000E106E78
:1022F000000E116E000E126E000E136E1200D890BA
:1023000019321832173216321B3EF9D715D01F0E6C
:102310001B640FD0000E106E000E116E000E126EB8
:10232000000E136E1200D89016361736183619366E
:102330001B061B50D8A4F7D716C010F017C011F019
:1023400018C012F019C013F0120026C02AF02B6A30
:102350002C6A25342A3601E32B802A502D6E2D500D
:10236000D8A407D0000E246E000E256E000E266E37
:10237000120029C02AF02B6A2C6A28342A3601E37D
:102380002B802A50326E3250D8A407D0000E246E13
:10239000000E256E000E266E120032507B0F2D2689
:1023A00026C032F02950321A800E3216258E288E21
:1023B000FF0E2716FF0E2816000E2916000E2E6E91
:1023C000000E2F6E000E306E070E316E24A006D068
:1023D00027502E2628502F2229503022D8902632DE
:1023E00025322432D890273628362936312EEED79A
:1023F000090E316E24A006D027502E2628502F22F9
:1024000029503022D890263225322432D8903032CA
:102410002F322E32312EEED72EC010F02FC011F0F9
:1024200030C012F02DC013F032C014F01CEC14F0C8
:1024300010C024F011C025F012C026F0120035C0E3
:1024400039F03A6A3B6A3434393601E33A8039501C
:10245000406E4050D8A407D0000E336E000E346E8C
:10246000000E356E120038C039F03A6A3B6A3734D4
:10247000393601E33A803950416E4150D8A407D033
:10248000000E336E000E346E000E356E1200000E1C
:102490003D6E000E3E6E000E3F6E4150890F405E55
:1024A00035C041F03850411A800E4116348EFF0E6F
:1024B0003316FF0E3416000E3516378EFF0E361605
:1024C000FF0E3716000E3816180E3C6ED8903D36AB
:1024D0003E363F363650335C3750345838503558D6
:1024E000D8A007D03650335E3750345A3850355A5A
:1024F0003D80D8903336343635363C2EE7D73DC054
:1025000010F03EC011F03FC012F040C013F041C0C7
:1025100014F01CEC14F010C033F011C034F012C0F1
:1025200035F012000600E9CF04F0EACF05F0E1CF64
:1025300006F0E2CF07F0D9CF08F0DACF09F0F3CFF9
:102540000AF0F4CF0BF0F6CF0CF0F7CF0DF0F8CF88
:102550000EF0F5CF0FF0F2B2F2A805D00001C72BB4
:10256000F292F28A0BD0F0B0F0A603D0F0909D82E8
:1025700005D0F0B2F0A802D0F092A082F2B4F2AA94
:1025800018D04EC0D6FF4FC0D7FF0001C405D8A455
:1025900007D00001C551D8A403D064EC13F009D0D2
:1025A0000001C451D8A405D00001C505D8B405EC7C
:1025B00013F09EB29DA202D090EC16F0A1B2A0A2A0
:1025C00006D0CEC0B2FFCFC0B3FF63EC16F00FC091
:1025D000F5FF0EC0F8FF0DC0F7FF0CC0F6FF0BC0F3
:1025E000F4FF0AC0F3FF09C0DAFF08C0D9FF07C033
:1025F000E2FF06C0E1FF05C0EAFF04C0E9FF03C037
:10260000FBFF02C0FAFF50921100434A442AF294A1
:102610000001D051435C4450800A016E0001D15149
:10262000800A0158D8A03DD04B50D8A43AD0000E13
:10263000446E000E436E0001C04BC12B0001BE5121
:102640000001C05D0001C151800A016E0001BF514F
:10265000800A0158D8A008D0000E0001C16F000EFA
:10266000C06F0001D04BD12B0001D1BF16D00001AB
:10267000D15105E1460E0001D05DD8A00ED0CAC0F0
:10268000D0F0CBC0D1F0000E0001C66F8290F29A5C
:10269000400EF26EF096F0981200010E4B6E8480A0
:1026A000120044BE1200445003E14304D8A01200BB
:1026B0004B04D8A41200000E446E000E436E000EB0
:1026C0004B6E8490F29A1200434A442AF29400011D
:1026D000C24BC32B0001D051435C4450800A016EB1
:1026E0000001D151800A0158D8A039D04B50D8A44C
:1026F00036D0000E446E000E436E0001C04BC12B5D
:102700000001BC510001C05D0001C151800A016E91
:102710000001BD51800A0158D8A009D0000E000167
:10272000C16F000EC06F0001D007D8A0D107000113
:10273000D1BF08D00001D1510EE1200E0001D05DC3
:10274000D8B009D08280010E0001C66F000E0001D2
:10275000D16F1F0ED06F010E4B6E8480120044BEED
:102760001200445003E14304D8A012004B04D8A443
:102770001200000E446E000E436E000E4B6E8490ED
:10278000F29A1200156EF00E8316F00E9516959CB7
:10279000959A95988C9C8C9A8C984EEC18F0300EEB
:1027A0004AEC17F0140E146E7A0EE82EFED7142E93
:1027B000FCD7300E4AEC17F0140E146E7A0EE82E89
:1027C000FED7142EFCD7320E4AEC17F069EC17F046
:1027D0000009D8A4FBD769EC17F00009D8A4FBD7EF
:1027E00015504AEC17F069EC17F00009D8A4FBD794
:1027F000080E4AEC17F069EC17F00009D8A4FBD7D3
:102800000F0E4AEC17F069EC17F00009D8A4FBD7BB
:10281000010E4AEC17F069EC17F00009D8A4FBD7B9
:10282000040E4AEC17F069EC17F00009D8A4FBD7A6
:10283000800EBDEC16F012001350D8B405D0105025
:1028400011101210D8A40CD0000E106E000E116ED4
:10285000000E126E1200132AD8901232113210326A
:10286000000E1014156E000E1114166EFE0E1214CA
:10287000176E155016101710D8B40CD0ECD7132AB9
:10288000010E1026000E1122000E1222D8901232D4
:1028900011321032000E1014156E000E1114166E47
:1028A000FF0E1214176E155016101710D8B406D05C
:1028B000E6D71306D89010361136123611BE03D063
:1028C000020E1360F6D713A0119ED8901332135046
:1028D00012121450D8A4128E10C010F011C011F0B2
:1028E00012C012F0120012AE16D010C016F011C0B5
:1028F00017F012C018F0161E171E181E162A000E0A
:1029000017221822000E1624106E000E1720116ECA
:10291000800E1820126E15AE16D013C016F014C01B
:1029200017F015C018F0161E171E181E162A000ED6
:1029300017221822000E1624136E000E1720146E94
:10294000800E1820156E000E101A000E111A800E3F
:10295000121A000E131A000E141A800E151A1350B4
:10296000105C1450115815501258D8B002D0D8909D
:102970001200D8801200000E1B6E19AE06D0186C23
:10298000191ED8B0192A010E1B6E17AE06D0166C90
:10299000171ED8B0172A010E1B1A000E1D6E000E4E
:1029A0001C6E18501910D8B41CD0010E1A6E04D029
:1029B000D890183619361A2A19AEFAD7D8901C367C
:1029C0001D361850165C19501758D8A005D018504D
:1029D000165E1950175A1C80D890193218321A2EC8
:1029E000EDD71B50D8B404D01C6C1D1ED8B01D2AC6
:1029F0001CC016F01DC017F01200000E186E000E5D
:102A0000196E000E1A6E000E1B6E14501510161063
:102A10001710D8B42AD0010E1C6E06D0D8901436E8
:102A20001536163617361C2A17AEF8D7D890183632
:102A300019361A361B361450105C155011581650A2
:102A4000125817501358D8A009D01450105E1550C2
:102A5000115A1650125A1750135A1880D89017321C
:102A60001632153214321C2EE1D718C010F019C0DE
:102A700011F01AC012F01BC013F01200000E156EF8
:102A800011AE06D0106C111ED8B0112A010E156EB1
:102A900013AE04D0126C131ED8B0132A12501310A8
:102AA000D8B418D0010E146E04D0D8901236133654
:102AB000142A13AEFAD71250105C13501158D8A034
:102AC00004D01250105E1350115AD89013321232A3
:102AD000142EF1D71550D8B404D0106C111ED8B0F4
:102AE000112A10C010F011C011F012002150221054
:102AF00023102410D8B424D0010E256E06D0D8900F
:102B00002136223623362436252A24AEF8D7215002
:102B10001D5C22501E5823501F5824502058D8A006
:102B200008D021501D5E22501E5A23501F5A245097
:102B3000205AD8902432233222322132252EE7D750
:102B40001DC01DF01EC01EF01FC01FF020C020F0D1
:102B50001200940EF66E300EF76E000EF86E00EE58
:102B6000C8F010EE08F00900F5CFEEFFE550E15097
:102B7000FAE1A80EF66E300EF76E000EF86E090040
:102B8000F5CF4EF00900F5CF4FF000EEB6F0120E83
:102B9000EE6AE806FDE100EE43F00B0EEE6AE80691
:102BA000FDE150905092000EF86E000109EF09F01F
:102BB000146E000EC26E000EC06ED89010303C0B2A
:102BC000C26E10C012F0123AF00E1216300E12162B
:102BD00011500F0B1210C16E14C012F0D8901236A3
:102BE000D8901236380E121614C013F0133A0F0E86
:102BF0001316070E13161450800B13101210C06E0C
:102C000010AE03D09E9C9D8CF28CC28012008E0E62
:102C1000206E06D0D8901B321A3219321832202A70
:102C2000000E18141C6E000E19141D6E000E1A14DE
:102C30001E6EFF0E1B141F6E1C501D101E101F1049
:102C4000D8A4E8D718C010F019C011F01AC012F0BB
:102C500020C013F0000E146E1CEC14F010C018F01D
:102C600011C019F012C01AF0120019D069EC17F057
:102C70000009D8A4FBD711C0F6FF12C0F7FFF86A0D
:102C8000070EF76403D00800F55005D0F6CFE9FF32
:102C9000F7CFEAFFEF502BEC17F0114A122A11C0C0
:102CA000F6FF12C0F7FFF86A070EF76403D00800BA
:102CB000F55005D0F6CFE9FFF7CFEAFFEF50000956
:102CC000D8B41200D3D7474A482AA1920001D05164
:102CD000475C4850800A016E0001D151800A0158BA
:102CE000D8A00BD04D50D8A408D0000E486E000ECE
:102CF000476E010E4D6E8484120048BE120048508B
:102D000003E14704D8A012004D04D8A41200000E1D
:102D1000486E000E476E000E4D6E8494A092120015
:102D2000454A462A9E920001D051455C4650800A91
:102D3000016E0001D151800A0158D8A00BD04C502F
:102D4000D8A408D0000E466E000E456E010E4C6EE3
:102D50008482120046BE1200465003E14504D8A00A
:102D600012004C04D8A41200000E466E000E456EF0
:102D7000000E4C6E84929D921200136EF00E95160A
:102D8000F00E83161350106E116A108E040E126E20
:102D9000113411321032122EFBD710500F0B831248
:102DA0008C9C8C9A1DEC18F08C881DEC18F08C987B
:102DB000F00E831613500F0B83121DEC18F08C8845
:102DC0001DEC18F08C980F0E95121200000169513D
:102DD00000016A1100016B11D8B409D0000E000186
:102DE000691B000E00016A1B800E00016B1B66C090
:102DF0003DF067C03EF068C03FF069C040F06AC077
:102E000041F06BC042F0CBEC0EF03DC066F03EC02E
:102E100067F03FC068F01200000E0001C66F82909C
:102E2000F29A000EF26EF096F09884908492849458
:102E3000000EBDEC16F0770E116E080E126E35EC1A
:102E400016F0400EBDEC16F0880E116E080E126ED4
:102E500035EC16F01200106EF00E9516F00E83167B
:102E600010380F0B0F0B83128C8A8C9C1DEC18F002
:102E70008C881DEC18F08C98F00E831610500F0BF8
:102E800083121DEC18F08C881DEC18F08C980F0E36
:102E900095121200106EF00E9516F00E8316103873
:102EA0000F0B0F0B83128C9C8C9A1DEC18F08C88E6
:102EB0001DEC18F08C98F00E831610500F0B831237
:102EC0001DEC18F08C881DEC18F08C980F0E9512E4
:102ED00012008C8C8C9A1DEC18F08C881DEC18F06C
:102EE00083A60AD08C981DEC18F08C881DEC18F085
:102EF0008C988C9C010E12008C981DEC18F08C881C
:102F00001DEC18F08C988C9C000E1200000E276EA1
:102F100025AE06D0246C251ED8B0252A010E276EBA
:102F200024C010F025C011F0126A8E0E136E27C057
:102F300014F01CEC14F010C024F011C025F012C0E5
:102F400026F01200106E1050360BB16E000EB36EEC
:102F5000000EB26EA19210AE02D0A08201D0A0925B
:102F600010A002D0B18E01D0B19EB1801200280E07
:102F7000C2EC13F069EC17F00009D8A4FBD7010EDE
:102F80004AEC17F069EC17F00009D8A4FBD70C0E37
:102F90004AEC17F012001E502002F3CF22F0F4CFBB
:102FA00023F01E502102F35023261F502002F3501D
:102FB000232622C01EF023C01FF012001050111053
:102FC0001210D8B406D0000E101A000E111A800E7E
:102FD000121A10C010F011C011F012C012F012003D
:102FE000106E10507F0BD56E000ED76E000ED66E91
:102FF000F29410AE02D0F28A01D0F29AD58E12006D
:10300000126E000E116E3A0E126005D02F0E126471
:1030100002D0010E116E11C010F010301200106EAF
:103020001050FB0BCA6E000ECC6E9E9210AE02D0FA
:103030009D8201D09D92CA84120000F000F000F041
:1030400000F000F000F000F000F000F000F000F000
:1030500000F01200116EC2CF10F0C30E1016D890FF
:1030600011303C0B1010C26E1200106EFA0E00F000
:10307000E82EFDD7102EFAD71200C450126EC3509E
:10308000106E12C011F01200C2A202D0010E120086
:10309000000E12000A0037000500B3FF1E0E35ECCB
:0A30A00018F01200C2821200B3FF04
:020000040020DA
:08000000FFFFFFFFFFFFFFFF00
:020000040030CA
:0E000000020B0E1EFF0080FF0FC00FE00F402E
:00000001FF
